:100000005BC0000069C0000067C0000065C0000060
:1000100063C0000061C000005FC000005DC0000060
:100020005BC0000059C0000057C0000055C0000070
:1000300053C0000051C000004FC000004DC0000080
:100040006DC0000049C0000047C0000045C000006E
:1000500043C0000041C000003FC000003DC00000A0
:100060003BC0000039C00000000000080002010091
:100070000003040700000000000000000102040863
:100080001020408001020408102001020408102002
:10009000040404040404040402020202020203032E
:1000A0000303030300000000250028002B000000CC
:1000B0000000240027002A0011241FBECFEFD8E043
:1000C000DEBFCDBF11E0A0E0B1E001C01D92A930BC
:1000D000B107E1F716D0ACC193CF61E08DE010C15C
:1000E00061E08DE04ED168EE73E080E090E060D09A
:1000F00060E08DE046D168EE73E080E090E058C0AB
:100100000895C3D0FDDFE9DFC0E0D0E0209711F40F
:10011000E7DFFECFE5DF0E940000F8CF1F920F92CD
:100120000FB60F9211242F933F938F939F93AF930A
:10013000BF938091010190910201A0910301B091C0
:1001400004013091000123E0230F2D3768F126E8E8
:10015000230F0296A11DB11D209300018093010180
:1001600090930201A0930301B093040180910501D3
:1001700090910601A0910701B09108010196A11D7F
:10018000B11D8093050190930601A0930701B093E0
:100190000801BF91AF919F918F913F912F910F9047
:1001A0000FBE0F901F9018950196A11DB11DD4CFC1
:1001B000CF92DF92EF92FF92CF93DF936B017C019E
:1001C0003FB7F8948091050190910601A091070135
:1001D000B091080126B5A89B05C02F3F19F00196E4
:1001E000A11DB11D3FBFBA2FA92F982F8827820FBD
:1001F000911DA11DB11D880F991FAA1FBB1F880F3C
:10020000991FAA1FBB1FEC01C114D104E104F10422
:10021000A9F10DD13FB7F8948091050190910601A5
:10022000A0910701B091080126B5A89B05C02F3FFA
:1002300019F00196A11DB11D3FBFBA2FA92F982F0C
:100240008827820F911DA11DB11D880F991FAA1F1C
:10025000BB1F880F991FAA1FBB1F8C1B9D0B883EBD
:100260009340B8F281E0C81AD108E108F108C851FA
:10027000DC4FC114D104E104F10459F6DF91CF91B0
:10028000FF90EF90DF90CF900895789484B58260CE
:1002900084BD84B5816084BD85B5826085BD85B52A
:1002A000816085BDEEE6F0E0808181608083E1E8D9
:1002B000F0E0108280818260808380818160808311
:1002C000E0E8F0E0808181608083E1EBF0E0808114
:1002D00084608083E0EBF0E0808181608083EAE7E6
:1002E000F0E080818460808380818260808380816F
:1002F000816080838081806880831092C10008952E
:10030000CF93DF9390E0FC01E458FF4F2491FC0170
:10031000E057FF4F84918823B9F090E0880F991F30
:10032000FC01E255FF4FA591B491FC01EC55FF4F44
:10033000C591D491662359F06230B9F08FB7F89423
:10034000EC91E22BEC938FBFDF91CF9108959FB793
:10035000F8948C91E22FE0958E238C932881E223F0
:10036000E8839FBFDF91CF9108959FB7F8943C91A8
:10037000822F809583238C93E881E22BE8839FBFB3
:10038000E3CF90E0FC01E859FF4F2491FC01E458D1
:10039000FF4F3491FC01E057FF4F84918823A1F077
:1003A000211118C0E82FF0E0EE0FFF1FEC55FF4FB2
:1003B000A591B4918FB7F894611107C09C91E32F78
:1003C000E095E923EC938FBF0895EC91E32BEC9338
:1003D0008FBFFACF233029F160F02730E1F02830C9
:1003E000A1F02430F9F6909180009F7D90938000D9
:1003F000D9CF213031F02230A9F694B59F7D94BD3C
:10040000D1CF94B59F7794BDCDCF9091B0009F7D13
:100410009093B000C7CF9091B0009F779093B000B9
:10042000C1CF909180009F7790938000BBCF0895BB
:04043000F894FFCF6E
:00000001FF
